:100000000C94E0060C9427070C9427070C94B0344A
:100010000C9427070C9427070C9427070C942707A8
:100020000C9427070C9427070C946B1C0C94271C2A
:100030000C94272A0C9427070C9427070C94270765
:100040000C9427070C9427070C9427070C94270778
:100050000C9427070C94441D0C9427070C94270735
:100060000C9427070C9427070C9427070C94270758
:100070000C9427070C9427070C9427070C94270748
:100080000C9427070C9427070C9427070C94270738
:100090000C9427070C9427070C9427070C94270728
:1000A0000C9427070C9427070C94270705010902D5
:1000B000A10185020901A1000509190129081500FE
:1000C0002501950875018102050109300931158165
:1000D000257F95027508810609381581257F9501D0
:1000E00075088106050C0A38021581257F95017572
:1000F000088106C0C00660FF0961A1010962150000
:1001000026FF009520750881020963150026FF006F
:10011000952075089102C005010906A1010507197E
:10012000E029E71500250195087501810295017503
:100130000881010507190029FF150026FF00950613
:1001400075088100050819012905950575019102B9
:10015000950175039101C00000000000000000003F
:10016000000000000000000000000000000000008F
:1001700000000000000000000000007E0F00D4FF1F
:10018000FFFFC70000007800000000000000002A08
:100190002B2800000000000000000000000000000C
:1001A000000029000000002C1E34202122243426C7
:1001B00027252E362D3738271E1F202122232425C0
:1001C000263333362E37381F0405060708090A0B75
:1001D0000C0D0E0F101112131415161718191A1BE7
:1001E0001C1D2F3130232D350405060708090A0B85
:1001F0000C0D0E0F101112131415161718191A1BC7
:100200001C1D2F3130354C00DA0281FFD9F1DB2083
:10021000A4A62EAF00A0C000A1C800AED580A81F24
:10022000D300408D1420000004643214783C1E1E5C
:10023000140A056162636465666768696A6B6C6D60
:100240006E6F707172737475767778797A31323334
:1002500034353637383930524542545F2D3D5B5D79
:100260005C233B27602C2E2F20202700204B0020D2
:100270002043004B6579203A202052002020440082
:1002800030302020530020202020204350490042BD
:10029000616C6C3A002F00204D563A004C61796534
:1002A000723A00808182838485868788898A8B8CD4
:1002B0008D8E8F9091929394A0A1A2A3A4A5A6A79E
:1002C000A8A9AAABACADAEAFB0B1B2B3B4C0C1C215
:1002D000C3C4C5C6C7C8C9CACBCCCDCECFD0D1D276
:1002E000D3D4000001010101010101010102020258
:1002F00002020202020203030303030303030404D2
:10030000040404040405050505050606060606079B
:100310000707070708080808090909090A0A0A0B54
:100320000B0B0C0C0C0D0D0D0E0E0E0F0F0F1010F5
:10033000111111121213131414151516161717187C
:100340001819191A1A1B1B1C1D1D1E1E1F202021E7
:100350002222232424252626272829292A2B2C2D2E
:100360002D2E2F30313232333435363738393A3B4F
:100370003C3D3E3F404142434445464748494A4C44
:100380004D4E4F50515354555658595A5B5D5E5F10
:10039000616264656668696B6C6D6F7072737577A6
:1003A000787A7B7D7E8082838587888A8C8E8F9108
:1003B000939596989A9C9EA0A2A3A5A7A9ABADAF32
:1003C000B1B3B5B7BABCBEC0C2C4C6C9CBCDCFD11C
:1003D000D4D6D8DBDDDFE2E4E7E9EBEEF0F3F5F8C5
:1003E000FAFDFF2223252628292A2C2D2F303233EF
:1003F0003536383A3B3D3E4042434547494A4C4EEC
:100400005051535557595A5C5E6062646668696B17
:100410006D6F71737577797B7D7F81838587898A1D
:100420008C8E90929496989A9C9E9FA1A3A5A7A823
:10043000AAACAEAFB1B3B4B6B8B9BBBCBEBFC1C253
:10044000C3C5C6C7C9CACBCCCDCED0D1D2D2D3D4E6
:10045000D5D6D7D7D8D9D9DADADBDBDBDCDCDCDC04
:10046000DCDDDDDDDDDCDCDCDCDCDBDBDBDADAD9D2
:10047000D9D8D7D7D6D5D4D3D2D2D1D0CECDCCCB54
:10048000CAC9C7C6C5C3C2C1BFBEBCBBB9B8B6B472
:10049000B3B1AFAEACAAA8A7A5A3A19F9E9C9A9802
:1004A000969492908E8C8A89878583817F7D7B79D3
:1004B000777573716F6D6B6968666462605E5C5AB4
:1004C0005957555351504E4C4A4947454342403E77
:1004D0003D3B3A3836353332302F2D2C2A29282609
:1004E00025232200AF00AE290014441A000800158D
:1004F000001700E00004001600074309000A00E1AD
:10050000001D621B680600190005000000E100E004
:1005100000E30091642B622A00130012000C001803
:10052000001C00280028000F000E430D000B002ABD
:10053000002A0037613600100011000000E400E7D7
:1005400000904190412C4201001E001F002000211C
:1005500000220001002E612F0038002D00870001CD
:10056000002E622F0238022D0287020000010001D6
:1005700000010001000100010027002600250024E1
:1005800000230001008900320030003400330001F4
:1005900000890232023002340233020000010001FD
:1005A0000001000100010001001E021F02200221C3
:1005B00002220201002E022F0238022D02870201C0
:1005C00000E100E300E2009100E100000001000111
:1005D0000001000100010001008908260225022413
:1005E0000223020100890232023002340233020186
:1005F000004C000100010090002C000000010001EF
:1006000000010001000100010029002B0000000092
:100610000000000100E000010038021E020000019D
:1006200000E100E300E20091000100000001000190
:100630000001000100010001000000000052000064
:10064000000000010000004F0051005000000001B8
:10065000004C0000000000900000000000010001BC
:1006600000010001000100010000002B000000005B
:10067000003A0001000000000000000000400001FE
:1006800000E1000000000000000100000001000186
:100690000001000100010001003F003E003D003C60
:1006A000003B0001004500440043004200410001BE
:1006B0000006510551000001000100000001000189
:1006C000000100010001000100C25CC35CC55CC701
:1006D0005CC95C0100CD5CCE5CCF5CD05CD15C01C0
:1006E00000D25CD35CD45C0000000000000100017B
:1006F00000010001000100A65D0000B45DB35DA82B
:100700005DA75DA55D000000000000AA5DA95D0178
:10071000000000000000000000005C00000100017B
:1007200000010001000100010001000100010001C1
:1007300000010001000100B05DB25DAF5D0100018C
:1007400000010001000100010001000000010001A2
:100750000001000100010001000100010001000191
:1007600000010001000100B15DB25DAF5D0100015B
:100770000001000100010001000100000001000172
:100780000001000100010001000100010001000161
:100790000001000100010001000100010001000151
:1007A0000001000100010001000100000001000142
:1007B0000001000100010001000100010001000131
:1007C0000001000100010001000100010001000121
:1007D0000001000100010001000100000001000112
:1007E0000001000100010009025B00030100A0FA02
:1007F0000904000001030101000921110100012287
:1008000040000705810308000A09040100020300F3
:1008100000000921110100012222000705820320A6
:100820000001070503032000010904020001030081
:10083000000009211101000122490007058403205D
:10084000000A1201000200000008575900040100CC
:100850000102000114034B00650079006200610091
:100860006C006C00340034000000100359006F006D
:1008700077006B0065006500730000000403090445
:100880000000000000003E5B4F5B3E003E6B4F6B84
:100890003E001C3E7C3E1C00183C7E3C18001C5751
:1008A0007D571C001C5E7F5E1C0000183C18000079
:1008B000FFE7C3E7FF00001824180000FFE7DBE7AD
:1008C000FF0030483A060E00262979292600407F8D
:1008D00005050700407F05253F005A3CE73C5A00CC
:1008E0007F3E1C1C0800081C1C3E7F0014227F2237
:1008F00014005F5F005F5F0006097F017F000066F4
:1009000089956A0060606060600094A2FFA2940014
:1009100008047E04080010207E20100008082A1C0D
:100920000800081C2A0808001E10101010000C1ED9
:100930000C1E0C0030383E383000060E3E0E06000D
:1009400000000000000000005F000000000700073A
:100950000000147F147F1400242A7F2A120023131E
:100960000864620036495620500000080703000062
:10097000001C224100000041221C00002A1C7F1C98
:100980002A0008083E0808000080703000000808AF
:100990000808080000006060000020100804020041
:1009A0003E5149453E0000427F400000724949499E
:1009B00046002141494D33001814127F100027458D
:1009C000454539003C4A4949310041211109070098
:1009D000364949493600464949291E00000014009D
:1009E00000000040340000000008142241001414EC
:1009F00014141400004122140800020159090600D1
:100A00003E415D594E007C1211127C007F494949DC
:100A100036003E41414122007F4141413E007F4935
:100A2000494941007F09090901003E4141517300D4
:100A30007F0808087F0000417F4100002040413FBF
:100A400001007F08142241007F40404040007F02A7
:100A50001C027F007F0408107F003E4141413E00A0
:100A60007F09090906003E4151215E007F091929CD
:100A7000460026494949320003017F0103003F40F7
:100A800040403F001F2040201F003F4038403F00B3
:100A90006314081463000304780403006159494D8A
:100AA0004300007F41414100020408102000004142
:100AB00041417F00040201020400404040404000E8
:100AC0000003070800002054547840007F28444465
:100AD0003800384444442800384444287F003854BF
:100AE0005454180000087E0902001824241C7800C1
:100AF0007F080404780000447D4000002040403D11
:100B000000007F102844000000417F4000007C046A
:100B1000780478007C0804047800384444443800A1
:100B20007C1824241800182424187C007C08040451
:100B3000080048545454240004043F4424003C401A
:100B400040207C001C2040201C003C4030403C00E9
:100B50004428102844004C9090907C004464544CED
:100B6000440000083641000000007700000000410A
:100B7000360800000201020402003C2623263C0045
:100B80000000000000000000000000000000000065
:100B90000000000000000000C0F0F88C86C6E7FFEF
:100BA000FFFFFFFFFFFEFCFCF8E080000000F0F01C
:100BB000F00000C0E0F070700000000000000000D5
:100BC0000000000000000000000000000000F8F835
:100BD000F80000000000000000000000000000001D
:100BE00000000000F8F8F80000F8F8F80000000035
:100BF0000000000000000000000000000000E0F025
:100C0000F0F0E0ECEEF7F37020007C7C7C7E007E60
:100C10007E7E7F7F7F000080C0E07E5B4F5BFEC0FA
:100C20000000C000DCD7DEDEDED7DC00C000000044
:100C300000000000000000000000000000000000B4
:100C400000000000000000000000000000000000A4
:100C50000080E07078686C64C7C7C7C7C7C7E73F44
:100C60001F0F3FFFFFFFFFFFFF3F0F000000FFFFD1
:100C7000FF1E3FFFF3E1800000F8FCFE3636363EF3
:100C8000BCB8000E3EFEF080F0FE3E0E0000FFFFFE
:100C9000FF060606FEFEFC7000E6F6F63636FEFEA1
:100CA000FC000000FFFFFF0000FFFFFF000000004E
:100CB00000000000000000000000000000000F1F06
:100CC0003F7F7F7F7F7F3F1E0C001F1F1F3F003F26
:100CD0003F3F7F7F7F00307B7F7830202030787FE0
:100CE0003B0003000F7F0F0F0F7F0F00030000007A
:100CF00000000000000000000000000000000000F4
:100D000000000000000000000000000000000000E3
:100D10003C7F6360E0C0C0C0C0C0C0C0C0FFFFC0B7
:100D20006030180F030303010000000000000303FC
:100D30000300000003030303000103030303030391
:100D40000301007070393F1F07010000000001031C
:100D5000030303030303010000010303030303036D
:100D60000100000003030300000303030000000070
:100D70000000000000000000000000000000000073
:100D80000000000000000000000000000000000063
:100D90000000000000000000000000000000000053
:100DA0000000000000000000000000000000000043
:100DB0000000000000000000000000000000000033
:100DC00011241FBECFEFDAE0DEBFCDBF04B603FEB5
:100DD00027C080912F0690913006A0913106B091E6
:100DE00032068730904BA740B04BD1F410922F06BB
:100DF00010923006109231061092320614BE84B75B
:100E0000877F84BF0FB6F894A895809160008861B1
:100E100080936000109260000FBEE0E0F8E3099557
:100E200011E0A0E0B1E0E4EAFEE602C005900D9218
:100E3000AA3CB107D9F726E0AAECB1E001C01D92A7
:100E4000AF32B207E1F70E944E2A0C940F370C9490
:100E500000008F929F92AF92BF92CF92DF92EF925B
:100E6000FF9290918901981305C0909121049032CE
:100E700009F44BC08093890190E290932104C82E1D
:100E8000D12CF12CE12C10922004C701B6012AE0EC
:100E900030E040E050E00E946C36605D603331F03D
:100EA000C114D104E104F10409F460E260931F0469
:100EB00060E28AE0C816D104E104F10490F08AE00F
:100EC000882E912CA12CB12CC701B601A50194014B
:100ED0000E946C36CA01B901A50194010E946C36CA
:100EE000605D60931E0420E284E6C816D104E1042C
:100EF000F10448F0C701B60124E630E040E050E0DC
:100F00000E946C36205D20931D048DE194E0FF90DB
:100F1000EF90DF90CF90BF90AF909F908F9008950B
:100F2000FC01AC014C5F5F4F8FEF91E32191822771
:100F300028E030E087FF09C0880F89272150310958
:100F4000C9F7E417F50791F70895880FF7CFE8ED93
:100F5000F0E080818E7F80831092E2001092DA00B0
:100F60001092E100A0EEB0E08C9181608C938081C2
:100F70008F77808319BCA7EDB0E08C918E7F8C9326
:100F800080818F7E80831092E20308952091E40097
:100F90003091E50095E6A9012091EC00822F817047
:100FA00020FF06C08091E80080FF06C080E0089521
:100FB0002091E80022FD1AC08091F003882389F077
:100FC000853089F08091EB0085FD0FC02091E40011
:100FD0003091E50042175307F9F29150E1F684E0B1
:100FE000089582E0089583E0089581E00895EF92E6
:100FF000FF920F931F93CF937C018B010E94C60732
:10100000C82F811117C08091E80085FD0BC0809129
:10101000E8008E778093E8000E94C607882399F342
:10102000C82F08C0F70181917F018093F100015022
:10103000110949F78C2FCF911F910F91FF90EF90DD
:1010400008958091F20387FF13C08091E80082FF2A
:1010500006C08091E8008B778093E80004C08091FF
:10106000F0038111F2CF08958091F0038823D9F322
:101070008091E80080FFF8CF8091E8008E77ECCF78
:10108000982F9093E900242F762F50E0891731F0A4
:101090007091EC002091ED005091F00021FD07C00F
:1010A0009F5F973071F78093E90081E00895309158
:1010B000EB003E7F3093EB003091ED003D7F3093AD
:1010C000ED003091EB0031603093EB007093EC0059
:1010D0002093ED005093F0002091EE0027FDE0CF2B
:1010E00080E00895CF92DF92EF92FF920F931F93CB
:1010F000CF93DF93C8EDD0E088818F7E8883E7EDC2
:10110000F0E080818160808384E082BF81E0809311
:10111000E20388818E7F888302EE10E0F80110825E
:101120001092DA0081EEC82ED12CF601108288814F
:101130008F77888388818068888388818F7D888382
:1011400019BC1092F0031092F1031092EF03109269
:10115000EE0390EEE92EF12CF70180818B7F8083E6
:1011600088818160888342E060E080E00E944008DE
:10117000F60180818E7F8083F80180818160808389
:10118000808188608083F70180818E7F8083888161
:1011900080618883DF91CF911F910F91FF90EF9035
:1011A000DF90CF900895FC018091F8039091F903AE
:1011B00086179707A0F06115710529F49091E80052
:1011C0009E779093E80090E06115710551F49111BC
:1011D00008C08091E80082FF34C080E00895BC011F
:1011E000F2CF8091F0038823C1F18530C1F1809165
:1011F000E80083FD30C08091E80082FDEACF809155
:10120000E80080FFE1CF8091F3002091F200382FB9
:101210006115710519F02830310558F091E028303A
:10122000310509F090E02091E8002E772093E80046
:10123000CBCF81918093F100615071092F5F3F4FB7
:10124000E7CF8091F003882341F0853041F0809111
:10125000E80083FFBECF81E0089582E0089583E037
:1012600008950895089508958091E503089587E706
:1012700097E7909301088093000888E19AE00FB601
:10128000F894A895809360000FBE90936000FFCF04
:101290002FB7F8946091DE037091DF038091E00333
:1012A0009091E1032FBF08959C01FC0132969FEFBE
:1012B00080E04191461751F09F3F19F4411101C060
:1012C000982F8F5F8630A9F79F3F09F40895290F63
:1012D000311D97FD3A95F90162830895FA01811154
:1012E00001C0FB0109940895E8E1F3E011828281D5
:1012F0008460828308958091D003982F9E7F61F44B
:10130000817082608093D0038091D303873918F075
:1013100086E98093D30308958032B0F381708E61A3
:10132000F1CFAF92BF92DF92EF92FF920F931F9394
:10133000CF93DF93082F162FE901E42FF0E0ED5152
:10134000FD4F611110C0E4915E2F4E2F4983E88359
:101350005A83DF91CF911F910F91FF90EF90DF9013
:10136000BF90AF900895E62EF12C4491D42EE42F37
:10137000F0E026E0829FC00111242FEF30E0B90198
:101380000E942A36802F90E0880F991F55E5569FBE
:10139000D001579FB00D11248A1B9B0B982F990FDA
:1013A000890F5901AE18BF08AE9ED001AF9EB00D97
:1013B000BE9EB00D11245B2F189F80011124012FB8
:1013C00011275901A01AB10AAE9E8001AF9E100DDF
:1013D000BE9E100D11245901A81AB108AE9CC0017F
:1013E000AF9C900DBE9C900D1124892F9927281B2E
:1013F000390B2E9FC0012F9F900D3E9F900D112401
:10140000E92F62307105A1F050F46115710509F4FE
:101410009DCF6130710581F0EB2F512F97CF643054
:10142000710569F080F06630710509F48FCFF4CF53
:10143000E42F4B2F592F8ACFE42F412F87CFEB2F4B
:10144000542F492F83CF4B2F5D2DE12F7FCFCF938B
:10145000DF93EBEFF3E083819481A581B681E9010D
:1014600088839983AA83BB83148213821682158290
:10147000DF91CF91089580E0089578940895E091E8
:101480004E02EB30A4F48AE0E802F0011124EF5F91
:10149000FE4F0084F185E02D309749F021E732E0DE
:1014A0004091500261E572E080914F0209940895E5
:1014B000EDE3F2E0828980933501838980934C01CA
:1014C0000895F894E82FE295EF70F0E031A1282F0D
:1014D0002F7081E090E001C0880F2A95EAF7982FDD
:1014E0009095932391A392A1892B82A30C943D0AFA
:1014F0009091A60292FF06C0282F28712830F9F497
:10150000877F846093FF06C0282F28712831F1F46B
:10151000877E84612091A70220FF06C0382F387192
:101520003830D9F4877F816021FF06C0282F2871C9
:101530002831D1F4877E816194FD877E0895282F1C
:1015400024712430F9F68B7F8860DCCF282F24713A
:10155000243101F78B7E8861DDCF382F3171313036
:1015600019F78E7F8860E0CF282F2171213121F774
:101570008E7E8861E1CFCF93DF93EC0182389105B5
:1015800089F1B8F58133910509F492C028F58932C3
:10159000910509F486C08A9709F491C0C11523E525
:1015A000D20708F0ACC0C11532E5D30708F011C16D
:1015B000C11540E2D40708F090C0C11581E0D807FA
:1015C00030F5C53AD10508F081C0C430D105F8F432
:1015D000C130D105E1F040C08533910509F45AC00E
:1015E000C997E1F68091A602837089F0C0EED0E041
:1015F0000EC0833E910599F170F4803E910501F192
:10160000823E910559F68091A60282FD21C0CE014D
:10161000DF91CF910895863E910561F1873E910556
:1016200071F1843E910509F0B9CF8091A70281FF45
:10163000EECF8091A602C7EED0E084FD0DC0E7CFCB
:101640008091A60280FDF4C09091A70290FFDFCFA9
:10165000C3EED0E084FFDBCFD0E0C0E0D8CF8091F4
:10166000A60282FDE8C09091A70290FDBFCF84FF43
:10167000CECFF2CF8091A60283FDDDCFC8CF80917F
:10168000A60283FDDBC09091A70291FFF0CFC4EECC
:10169000D0E0BDCF8091A60285FFB9CFC9E2D0E0EE
:1016A000B6CF8091A60285FFB2CFC5E3D0E0AFCF21
:1016B0008091A60286FFABCFCAE2D0E0A8CF80918E
:1016C000A60286FFA4CFC1E3D0E0A1CFCE01805E09
:1016D0009109089708F49BCFBFCFC11591E5D907B1
:1016E00008F072C0C11520E5D20708F050C0C1153E
:1016F00030E4D30708F4B0CFDF70D06A88CFC115CB
:1017000046E5D407F0F4C11585E5D80708F077C0A1
:10171000C11594E5D90708F06DC0CE0183709927F3
:1017200021E030E002C0220F331F8A95E2F7C69510
:10173000C69590E2C99FE0011124C22BD32BDA6831
:1017400066CFC1152AE5D20778F4C11539E5D3076C
:1017500008F060C0C11548E5D40708F47DCFDC2F40
:10176000CC27C06FD06A53CFCE01905681159042DE
:1017700008F072CF8D2F8F710E94780A90E0982F19
:10178000882788279F719C012C2BE90141C0CE013D
:10179000E4E096958795EA95E1F783702C2F2695DE
:1017A0002695237040E2249F90011124382B8C2F22
:1017B0008370C1E0D0E002C0CC0FDD1F8A95E2F754
:1017C000C22BD32BDC6823CFDC2FCC27C16FD06A90
:1017D0001ECFCE018370992721E030E002C0220F96
:1017E000331F8A95E2F7C695C69580E2C89FE0014F
:1017F0001124E6CFDC2FCC27C46FD06A08CF8C2F02
:101800000E94780AC82FD0E0DC2FCC27CC27DF71CC
:10181000D062FDCE8C2F8F700E94780A34E0D6956E
:10182000C7953A95E1F7CF709C2FEC01D069EFCEC8
:10183000C9E3D0E0ECCEC2EED0E0E9CEC6EED0E017
:10184000E6CE809130028111109230020895809589
:101850009091E30398239093E30308958091E30329
:1018600090912F02892B90912E02892B8093CC018D
:1018700090913002992391F0892B8093CC0120E044
:101880008EEC91E0FC013191CF0131112F5FF1E03D
:10189000843D9F07B9F721110E94210CE091DB03E1
:1018A000F091DC03309731F00280F381E02D8CEC75
:1018B00091E00994089580912C029091FB01981376
:1018C00001C008958F5F8770FACFE92FEE0FE90FFF
:1018D000EE0F8E0F982F977086958695869523E04C
:1018E000829FF0011124ED51FE4F50E040E080E076
:1018F000219130E0092E02C0369527950A94E2F72F
:1019000021703327042E01C0220F0A94EAF7822B9C
:101910004F5F5F4F4330510559F70895E92FEE0FA0
:10192000E90FEE0F8E0F982F977041E001C0440F22
:101930009A95EAF786958695869593E0899FF001BA
:101940001124ED51FE4F30E020E070E05191DF01B5
:101950001197CB01022E02C0969587950A94E2F763
:10196000817081958527842385278C932F5F3F4F36
:101970002330310559F708958093FA0310922F020E
:1019800010922E020C942E0C8091FA03982F9670D0
:10199000963019F488600C94BC0C877FFCCF21E052
:1019A00030E001C0220F8A95EAF720958091FA0372
:1019B00082230C94BC0C90912D02809589238093F6
:1019C0002D02282F277091F4282F082E000C330B9E
:1019D0009217130659F09091A70292FD07C08595C2
:1019E000859585950E94CF0C10922D02089521E0D7
:1019F00030E001C0220F8A95EAF78091FA03822B2A
:101A00000C94BC0C8093310210922F0210922E0283
:101A10000C942E0C882321F00E94270C0C942E0C81
:101A20000895882339F09091E303982B9093E30372
:101A30000C942E0C0895882309F452C09CEF980F43
:101A4000913A78F4EEECF1E024ED31E091918913D4
:101A500003C0DF0111971C922E173F07B9F70C94B2
:101A60002E0C90E2980F983050F4877091E001C0EE
:101A7000990F8A95EAF7892F0E94270CF0CF9BE5F2
:101A8000980F9330B0F48091DF019091E001892BA1
:101A900039F11092E0011092DF01E091DB03F09147
:101AA000DC033097E9F00680F781E02D90E080E0DC
:101AB0000994885A8731A0F48091E1019091E20164
:101AC000892B71F01092E2011092E101E091DB03A9
:101AD000F091DC03309721F00084F185E02DE6CF12
:101AE0000895CF93C82F8823A1F18CEF8C0F813AF2
:101AF000F8F4EEECF1E0DF018D91C81761F081E0C0
:101B0000A43DB807C9F76C2F8CEC91E00E945409F2
:101B1000CF910C942E0C8191C81303C0DF01119753
:101B20001C9281E0E43DF807B1F70E942E0CEBCF48
:101B300080E28C0F883068F4C77021E030E001C08B
:101B4000220FCA95EAF78091E303822B8093E30387
:101B5000DFCFCF910895982F92959F7011F0892F24
:101B600094E0282F2695269511F09E5F822F86956A
:101B700009F09F5F892F0895CF93C82F80910804A3
:101B80008C1751F00E9448096093090470930A046D
:101B900080930B0490930C04C0930804CF91089594
:101BA000CF92DF92EF92FF920F931F93CF93DF9329
:101BB000FC01EB0190910D04911101C094E0608152
:101BC000718191509B01092E02C0359527950A9489
:101BD000E2F7D901092E02C0AA0FBB1F0A94E2F74F
:101BE0006A1B7B0B71836083628173818B01092E79
:101BF00002C0159507950A94E2F7D80102C0AA0F12
:101C0000BB1F9A95E2F76A1B7B0B7383628381E8A3
:101C10000138BFEF1B072CF0802F003811050CF0A6
:101C20008FE78D8321389FEF390774F12038310514
:101C30006CF5922F91959C83442319F081958D83A7
:101C40002C830E9448092D81211103C02C8122235D
:101C5000F9F060930E0470930F0480931004909336
:101C60001104809112049BE0980F973120F4080F23
:101C7000009312041D82DF91CF911F910F91FF906D
:101C8000EF90DF90CF90089521E8D3CF2FE7D1CF09
:101C9000C0900E04D0900F04E0901004F090110456
:101CA0006C197D098E099F096436710581059105BE
:101CB000C0F210921204D5CFFC01DB0122813381E6
:101CC00091E821388FEF38072CF0922F203831051A
:101CD0000CF09FE712969C93129720813181213856
:101CE0008FEF3807A4F0203831059CF413962C931D
:101CF0001397442339F0919512969C93129721954E
:101D000013962C931182108213821282089521E877
:101D1000EDCF2FE7EBCF382F20E287FF02C03195C0
:101D20002DE24AE0832F642F0E944A36905D909303
:101D3000D80181110BC02093D70120E22093D60156
:101D400020E22093D50185ED91E00895642F0E9453
:101D50004A36905D9093D701832F64E60E944A36FD
:101D6000882361F3805D8093D601EBCF9C01860FC1
:101D7000971F37FD07C077FD04C097FF02C08FEFA4
:101D80009FE7089577FFFDCF97FDFBCF80E090E8B8
:101D90000895EEECF1E086E0DF011D928A95E9F707
:101DA00010922F0210922E020C942E0C1F93CF93A0
:101DB000DF93CDB7DEB7AA970FB6F894DEBF0FBE9C
:101DC000CDBF82EF93E02091F100DC012D93CD0196
:101DD000B3E08A3F9B07B9F78091F303833009F49E
:101DE00072C0B8F4813009F449C0823009F4B5C03A
:101DF0008091E80083FF8DC28091F2039091F303FC
:101E00009A3008F086C2E92FF0E0EF5EF84C0C94AF
:101E10008E368A3009F490C08B3009F471C0893055
:101E200039F78091F203813219F78091F60390918E
:101E3000F703009711F00297D9F68091E800877FA9
:101E40008093E8008091E80082FF38C09091F30011
:101E50008091F200029731F48091F100813011F00D
:101E6000863021F48091F1008093E5038091E800B1
:101E70008B778093E8000E942108BACF8091F2030B
:101E8000813A09F0B5CF8091E800877F8093E80020
:101E90008091F6039091F703892B61F468E086EE58
:101EA00093E070E00E94D3088091E8008B778093E4
:101EB000E8009ECF60E090E080E0F3CF8091F003F7
:101EC0008111C0CF95CF8091F203813A09F090CF74
:101ED0008091F6039091F703892B09F089CF8091C7
:101EE000E800877F8093E8008091E80080FFFCCFC6
:101EF000809183018093F1008091E8008E77B9CFC3
:101F00008091F203813209F073CF8091F6039091B2
:101F1000F703892B09F06CCF8091E800877F8093CD
:101F2000E8000E9421088091F403809383011092BD
:101F3000E3030E94C90E5CCF8091F203813209F065
:101F400057CF8091E800877F8093E8000E942108A6
:101F50008091F5038093E4034BCF8091F203813AA3
:101F600009F046CF8091E800877F8093E800809158
:101F7000E80080FFFCCF8091E403BCCF803899F06B
:101F8000823809F0C6C18091F6038F70873008F05F
:101F9000C0C18093E9008091EB0085FB882780F920
:101FA0001092E90006C08091EE039091EF03911129
:101FB00082609091E800977F9093E8008093F10011
:101FC0001092F1008091E8008E779FC1882309F478
:101FD0008DC1823009F09DC18091F403811190C1BF
:101FE0008091F6038F702FEF280F263008F091C1F3
:101FF0008093E9002091EB0020FF82C1933031F4FF
:102000008091EB0080628093EB007AC19091EB00AD
:1020100090619093EB0021E030E001C0220F8A959F
:10202000EAF72093EA001092EA008091EB008860C2
:10203000EACF81116EC11091F4031F778091E30004
:102040008078812B8093E3008091E800877F8093E4
:10205000E8000E9421088091E80080FFFCCF809179
:10206000E30080688093E30082E0111183E08093B5
:10207000F0034FC18058823008F04BC12091F40327
:102080003091F5032C3DE3E03E07A1F583E08A8320
:102090008AE289834FB7F894DE01139620E03EE090
:1020A00051E2E32FF0E050935700E49120FF03C08A
:1020B000E295EF703F5FEF708E2F90E0EA30C0F056
:1020C000C7968D939D932F5F243159F74FBF809111
:1020D000E800877F8093E8006AE270E0CE01019615
:1020E0000E94D3088091E8008B778093E80011C1AB
:1020F000C096E7CF8091F6039091F703432F5527C1
:102100004330510509F44AC078F54130510509F4CE
:102110007AC08BE590E0E7EEF7E04230510509F038
:10212000F8C02091E800277F2093E8002091F80371
:102130003091F9038217930708F49C0140E02115C0
:10214000310509F065C0411163C08091E80082FD4E
:10215000C9CF8091F003882329F2853019F280914C
:10216000E80083FFF2CFBECF4132510509F43CC0F5
:102170004232510509F0CDC08330910508F0C9C045
:10218000FC01EE0FFF1FE254FE4F0190F081E02DA5
:1021900085549E4FDC018C9190E01AC0332721308A
:1021A0003105D1F02115310561F02230310509F0FA
:1021B000B0C0E4E5F8E0E4918E2F90E0E4E5F8E0CB
:1021C00007C0ECE7F8E0E4918E2F90E0ECE7F8E050
:1021D000009709F49EC0A5CFEAE6F8E0E4918E2FBF
:1021E00090E0EAE6F8E0F4CF8330910508F091C082
:1021F000880F991FFC01EC53FE4F0190F081E02DF8
:1022000089E090E08ECF82E190E0E2E4F8E089CFCF
:102210008091F003882309F465CF853009F462CFFB
:102220008091E80083FD5ECF8091E80082FD8DCF34
:102230008091E80080FF83CF9091F3008091F200BD
:102240002115310519F08830910550F041E00897CB
:1022500009F040E08091E8008E778093E8006FCF2E
:1022600044914093F1003196215031090196E8CF15
:10227000803809F04EC08091E800877F8093E800A5
:102280008091F1038093F1009DCE811142C01091A5
:10229000F4031230F0F58091E800877F8093E80026
:1022A0001093F1030E942108112311F084E005C06E
:1022B0008091E30087FDFACF81E08093F00342E054
:1022C00061EC81E00E94400842E261EC84E00E94FF
:1022D000400842E261EC82E00E94400842E260EC89
:1022E00083E00E9440088091F00313C08091F403C2
:1022F000813079F481E0933009F080E08093EF033E
:102300001092E9008091E800877F8093E8000E94A6
:1023100021088091E80083FF0AC08091E800877F50
:102320008093E8008091EB0080628093EB00AA9696
:102330000FB6F894DEBF0FBECDBFDF91CF911F91D6
:102340000895CF93DF93682F81E06A3019F06D30E4
:1023500029F480E0DF91CF910C94301280912B060C
:1023600090912C0626E0FC01A5E2B6E001900D92CA
:102370002A95E1F7603E08F45AC026E0FC0111926C
:102380002A95E9F7C0912B06D0912C0646E050E043
:10239000BE0185E296E00E94B1369E01255234408E
:1023A000892B41F1C90145E0969587954A95E1F75A
:1023B00041E050E0BA0102C0660F771F8A95E2F74C
:1023C000CB016091230470912404862B972BB901D3
:1023D0006B5F7F4FE5E076956795EA95E1F702C080
:1023E000440F551F6A95E2F7842B952B9093240494
:1023F000809323042A5F3F4F40912204642F70E0B2
:10240000C9010E942A36481B463010F4240F311DA2
:10241000211572E0370710F030E020E02B5D3B4FD4
:1024200030932C0620932B06DF91CF910895F6E090
:102430006F9FB00111246058774F46E050E00E9432
:102440009B36A0CFCF93DF93EC01FE0184918111E5
:1024500003C0DF91CF9108950E94A1112196F5CF7D
:10246000CF93382FE0912B06F0912C06E552F440E3
:1024700020912204622F70E0CF010E942A36281B8F
:10248000822F332361F066E00E943E36C82FC15090
:1024900010F4CF91089580E20E94A111F8CF9F011E
:1024A000280F311D2115324018F080E0F0E0E0E007
:1024B0008E0F9F2F911D8B5D9B4F90932C068093C9
:1024C0002B06E7CFCF93DF93CDB7DEB72C970FB6B0
:1024D000F894DEBF0FBECDBF86E0ECE0F3E0DE0196
:1024E000179601900D928A95E1F786E0E7EFF2E00A
:1024F000DE01119601900D928A95E1F746E050E0D9
:10250000BE016F5F7F4FCE0107960E94B136892BC7
:1025100079F0E091DB03F091DC03309749F082E041
:1025200080930C030480F581E02D8CE093E0099505
:1025300010920E0310920F031092100310921103C9
:1025400086E0ECE0F3E0A7EFB2E001900D928A950F
:10255000E1F72C960FB6F894DEBF0FBECDBFDF912A
:10256000CF9108950F931F93CF93DF93EC01FC015C
:1025700001900020E9F78F0101501109C017D10720
:1025800028F0DF91CF911F910F91089589910E94BA
:10259000A111F4CFCF92DF92EF92FF920F931F938E
:1025A000CF93DF936C017B0164E670E088E70E94C3
:1025B0000733EC0197FD12C010E000E0F601E00FD8
:1025C000F11F849164E670E00E948133EC01892B55
:1025D00029F40F5F1F4F0E151F0581F70E94043469
:1025E000CE01DF91CF911F910F91FF90EF90DF907F
:1025F000CF9008958091D9039091DA03911103C08F
:1026000091E089270895882369F062E070E085EE03
:1026100094E00E94CA12892B19F08091D903089581
:102620001092D9038091D903EBCFCF93C091D903F6
:102630008091DA038823D1F00E944809605A7541DD
:102640008F4F9F4F6093D5037093D6038093D7032A
:102650009093D803C11108C062E070E083EE94E06B
:102660000E94CA12892B29F0C091D9038C2FCF91D7
:10267000089581E08093D903F7CF9C0184E0809393
:10268000E9009FEF8091E800915085FD06C085ED3F
:102690008A95F1F700009111F5CF8091E80085FF50
:1026A0000CC050E040E066E070E0C9010E94F7070E
:1026B0008091E8008E778093E8000895CF93DF93B0
:1026C000EC0181E08093E9008FEF9091E800815068
:1026D00095FD06C095ED9A95F1F700008111F5CFB3
:1026E0008091E80085FF14C050E040E068E070E0B1
:1026F000CE010E94F7078091E8008E778093E80072
:1027000088E0FE01A6EEB3E001900D928A95E1F714
:10271000DF91CF910895609185018091D00380FF72
:1027200020C08091840143E0849FC0011124855E14
:102730009C4F539A2BB1277F3BB138605FB7F89419
:10274000FC01649FE00DF11D1124BF01681779079A
:10275000D1F45FBF8FE594E00197F1F700C000006E
:102760000895809186019091870123E0829FF00176
:102770001124E55EFC4F8917A0F6118210821282A7
:102780008F5F3396F8CFFC014191CF01E8E03BB970
:10279000000000C047FF2BB9440F000000C000C07C
:1027A00000C02BB900C0EA9591F7D0CFEF92FF920D
:1027B0001F93CF93DF93EC0110E0EE24EA94F12C09
:1027C00060918801161770F00E948B139A818C819A
:1027D00090FF2AC08F5F8C83DF91CF911F91FF9074
:1027E000EF90089520918601422F410F5527551FE4
:1027F000CA019A01220F331F280F391F255E3C4F53
:102800004091D303473908F046E970E0C7010E94C0
:102810005836962F8C816091D203199F800D112418
:102820000E9491091F5FCCCF8150D5CF9091D003EA
:1028300090FF14C0909186012091870133E0939F0F
:10284000F0011124E55EFC4F921710F00C948B13ED
:102850008183608342839F5F3396F6CF08950F9301
:102860001F93CF93DF9300D00F92CDB7DEB78C01CB
:102870008091CF0381110AC09E012F5F3F4F46E92F
:102880006FEF0E9491098A818093CF03F8016481E0
:10289000613069F08091CF0340E0662361F040E051
:1028A000623011F44091CF0380E060E004C0609199
:1028B000CF0340E080E00E941614F801848190E08C
:1028C000019663E070E00E94583684830F900F9069
:1028D0000F90DF91CF911F910F910895CF93DF93C8
:1028E00000D00F92CDB7DEB79091D00390FF0DC00E
:1028F000473908F046E99E012F5F3F4F0E9491093A
:102900004B8169818A810E9416140F900F900F905D
:10291000DF91CF910895CF93DF93EC01E0EDF3E0E9
:10292000438162818C810E946E148C818F5F8C83C5
:10293000DF91CF910895CF93DF93EC01EC81F0E02C
:10294000ED51FC4F4491E0EDF3E0628181810E9402
:102950006E148C818F5F8C83DF91CF910895E0EDB1
:10296000F3E080818E7F80830E947409E8E1F3E0C8
:102970008281816082832FEF80E792E02150804046
:102980009040E1F700C000000C948B139F92AF922F
:10299000BF92CF92DF92EF92FF920F931F93CF934C
:1029A000DF937C015B016A018091A10201E010E0EC
:1029B0008A3010F40AE010E0C1E0D0E0F894B501EC
:1029C000C701F6010995982E0E943D0A911004C096
:1029D00021960C171D076CF4892DDF91CF911F9163
:1029E0000F91FF90EF90DF90CF90BF90AF909F90AE
:1029F0000895CC9F9001CD9F300D300D112490E0B3
:102A000080E045E34A95F1F70000019682179307AD
:102A1000C1F7D4CF80913C02811118C082E390911C
:102A2000E30097FD10C0EFE3FCE93197F1F700C038
:102A300000008150A1F782E080933C020E94A7072A
:102A40001092F00303C081E080933C0281E09091FA
:102A50003C02913011F080E0089508950E940A151B
:102A6000882351F0E091DB03F091DC03309721F0F3
:102A70000190F081E02D099480E008950F931F9359
:102A80000E940A15882321F01F910F910C94480988
:102A90000E9448090091A2021091A3022091A40271
:102AA0003091A502600F711F821F931F1F910F911C
:102AB000089554985C9A879A8F9885E08A95F1F7E3
:102AC000000089B187988F9A90EA9A95F1F790E083
:102AD00024E0959587952A95E1F7809590958170EA
:102AE0000895CF93DF938091FB03CEE18111CDE177
:102AF0008091FC03D0E0882329F08091FD03DEE182
:102B00008111DDE10E94591581110FC08D2F809335
:102B10008401C0938501CD0F10928601C093870177
:102B2000C0938801DF91CF91089580E0F0CF80912C
:102B3000FB03F90180830C9471151F93CF93DF93EE
:102B4000182FEB010E94710D8FE99FE00197F1F7BB
:102B500000C000002197C1F7812FDF91CF911F9115
:102B60000C941B0DCF93DF93C7ECD2E060E0CE0155
:102B70000E94DB362196C11584E0D807B9F7DF91B2
:102B8000CF9108956F927F928F929F92AF92BF9252
:102B9000CF92DF92EF92FF920F931F93CF93DF9329
:102BA00087EEC82E84E0D82E93E9E92EF12CE701B8
:102BB000C056D10936011BC0F50185909490692D4E
:102BC000C8010E94DB36682DC80101960E94DB36E1
:102BD00082E0A80EB11C0E5F1F4FC017D10761F72E
:102BE0008CE0680E711C2C96CE15DF0529F08E0145
:102BF0000C5011095301E0CF7E0180E6E80EF11C74
:102C000080E6C80ED11C83E3E81683E0F80679F667
:102C1000DF91CF911F910F91FF90EF90DF90CF90B8
:102C2000BF90AF909F908F907F906F90089586E2B5
:102C300090E00C94DB36CF93C82F6FEF811162E2E6
:102C400083E290E00E94DB366FEFC11160E184E225
:102C500090E00E94DB366FEFC11161E085E290E009
:102C6000CF910C94DB3680E00E941B1660E070E090
:102C7000CB010E9417160E94C2150E94B21581E076
:102C80000C941B16CF93C091A702C2FB992790F911
:102C9000981799F080FBC2F9C093A7026091A60231
:102CA00084E090E00E94DB366C2F82E290E00E948C
:102CB000DB3682E0CF910C94DB0CCF9108950F931B
:102CC0001F93CF93DF93C42FD0E0CC0FDD1F2CE0F8
:102CD000629FC00DD11D112430E6839FC00DD11D10
:102CE0001124CE0187960E94C736082F10E0102FBE
:102CF0000027CE0188960E94C7369801282BC9016B
:102D0000DF91CF911F910F910895462F873038F4AE
:102D1000783028F4663018F4672F0C945F1690E032
:102D200080E00895CF92DF92FF920F931F93CF938D
:102D3000DF936C010091FA0380913102082BC7E008
:102D4000D0E010E0FC2EC8010C2E02C095958795AE
:102D50000A94E2F780FD0CC02197A0F7F12C8F2D8B
:102D6000DF91CF911F910F91FF90DF90CF90089549
:102D7000B6018C2F0E9485160E94BB0A019761F351
:102D8000EECFCF93DF93EC010E949216BE010E941A
:102D90008516DF91CF910C94BB0AFC018081918153
:102DA0000E94C116292F2F7092959F7092509E30CD
:102DB00078F4E92FF0E0E55EF84C0C948E36803F15
:102DC00019F020F4883E20F481E00895843FE1F377
:102DD00080E00895883EC0F3813FD1F7F5CF822F80
:102DE000869586958695089583E290E00E94C73681
:102DF000823289F484E290E00E94C736803159F42F
:102E000085E290E00E94C73691E0813009F090E0C1
:102E1000892F8170089580E0FCCFCF92DF92EF92EE
:102E2000FF926B017C010E947B09B701A60188E03B
:102E300090E0FF90EF90DF90CF900C94ED36EF9202
:102E4000FF920F931F93CF93DF9300D00F92CDB7D4
:102E5000DEB7082FF62E142FE22E8091D00380FFCC
:102E60003DC0E82FE695F0E0E555FE4F9081909348
:102E700018038E7F8230E1F5473908F046E99E015C
:102E80002F5F3F4F6F2D802F0E9491094B816981E9
:102E90008A810E9416148091D103801308C080910A
:102EA000D2038F1104C08091D303811729F0809140
:102EB0001A03826080931A030093D103F092D20325
:102EC0001093D303EE2051F06091D0037091D103A1
:102ED0008091D2039091D3030E940D170F900F9011
:102EE0000F90DF91CF911F910F91FF90EF90089578
:102EF000923019F41091D303CECF8091D103963044
:102F000011F0993041F6082FC6CFE0EDF3E0438190
:102F10002FE0421B08F440E021E0628181810C94A3
:102F20001F17E0EDF3E043812FE0420F08F44FEF6D
:102F300021E0628181810C941F17E0EDF3E0628152
:102F400021E1621B08F460E021E0438181810C945F
:102F50001F17E0EDF3E0628121E1620F08F46FEFEB
:102F600021E0438181810C941F17E0EDF3E0818122
:102F700021E04381628181510C941F17E0EDF3E061
:102F8000818121E0438162818F5E0C941F178091C3
:102F9000D403882319F081508093D4036091D00327
:102FA0007091D1038091D2039091D3030C940D17AB
:102FB0008091D403833018F48F5F8093D4036091A1
:102FC000D0037091D1038091D2039091D3030C94DC
:102FD0000D17E0EDF3E083E0808311828FEF8283B1
:102FE00086E983831482A8E1B3E012968C9112974C
:102FF000836012968C9360817181828193810C949D
:103000000D1769EE7EEF90E080E00E94F93660E0F7
:1030100082E090E00E94DB3660E083E090E00E9476
:10302000DB361092310260E084E090E00E94DB36F3
:1030300060E082E290E00E94DB3660E085E090E0B4
:103040000E94DB3660E086E090E00E94DB366FEFA6
:1030500087E090E00E94DB3640E050E0BA0188E073
:1030600090E00E94ED3660E08DE090E00E94DB365B
:1030700040E050E0BA0188E190E00E94ED3660E067
:1030800087E190E00E94DB3640E050E0BA018CE13D
:1030900090E00E94ED3670E060E080E290E00E94F7
:1030A000F93640E050E0BA0188E190E00E94ED3648
:1030B00080E00E941B160E94331640E050E0BA01E7
:1030C0008FE090E00E94ED361092FD021092FE0219
:1030D0001092FF021092000384E190E09093FE02B0
:1030E0008093FD024091FD025091FE026091FF022B
:1030F0007091000383E190E00C94ED36EF92FF9223
:103100000F931F93CF93DF937901C82F880FDD0BA7
:1031100041155105A9F08AE08C9FF0018D9FF00DBB
:103120001124EF5FFE4F83819481835C9D4F228148
:1031300030E04217530708F49A01A9010E94BE36F5
:10314000CE010E947635892B11F501151105E9F0A4
:103150008AE08C9FF0018D9FF00D1124EF5FFE4FF0
:10316000458150E00417150708F4A8018AE08C9FF8
:10317000F0018D9FF00D1124EF5FFE4F6681778186
:10318000635C7D4FC7010E94BE3681E001C080E0D4
:10319000DF91CF911F910F91FF90EF900895AF9223
:1031A000BF92CF92DF92EF92FF920F931F93CF9334
:1031B000DF9300D000D0CDB7DEB78C83E62E5A0166
:1031C000F22E68018091A1028A3080F080E00F9099
:1031D0000F900F900F90DF91CF911F910F91FF9063
:1031E000EF90DF90CF90BF90AF9008958C818830A2
:1031F0006CF389836A832B836093350120934C01A0
:1032000010E000E030E020E043E050E0BE016F5FFE
:103210007F4F84E00E947E188823C1F24E2D50E03B
:1032200030E020E0B50185E00E947E18882371F22D
:1032300030E020E041E050E0BE016C5F7F4F86E06F
:103240000E947E18882311F20F2D10E0960150E0A5
:1032500040E070E060E087E00E947E18B8CF0F93F6
:103260001F93CF93DF93CDB7DEB728970FB6F894AF
:10327000DEBF0FBECDBF85E0E0EDF3E0DE011196CD
:1032800001900D928A95E1F78091180390911903AE
:10329000A0911A038E839F83A887288540919D0261
:1032A00050919E0260919F027091A0023FB7F894E6
:1032B0008091DE039091DF03A091E003B091E103E0
:1032C0003FBF841B950BA60BB70B84369105A10558
:1032D000B10510F42223C1F010E000E030E020E05E
:1032E00048E050E0BE016F5F7F4F83E00E947E1890
:1032F000882369F00E94480960939D0270939E02A2
:1033000080939F029093A00210921A0381E0289666
:103310000FB6F894DEBF0FBECDBFDF91CF911F91E6
:103320000F9108950F931F93CF93DF9300D000D098
:10333000CDB7DEB74091990250919A0260919B02FD
:1033400070919C022FB7F8948091DE039091DF0377
:10335000A091E003B091E1032FBF841B950BA60B56
:10336000B70B11E084369105A105B10518F10E9453
:103370003E156E5F7F4F8F4F9F4F69837A838B839C
:103380009C8310E000E030E020E044E050E0BE012B
:103390006F5F7F4F82E00E947E18182F882351F0C4
:1033A0000E9448096093990270939A0280939B024D
:1033B00090939C02812F0F900F900F900F90DF91B0
:1033C000CF911F910F910895EF92FF920F931F934A
:1033D000CF93DF9300D000D00F92CDB7DEB77B0143
:1033E00001E010E09E012B5F3F4F50E040E070E0B5
:1033F00060E080E00E947E18182F882309F452C0F4
:1034000040919502509196026091970270919802B6
:103410002FB7F8948091DE039091DF03A091E00331
:10342000B091E1032FBF841B950BA60BB70B84361D
:103430009105A105B10538F48EE392E00E94900752
:103440009D81891779F104E010E09E012F5F3F4FC5
:1034500050E040E070E060E081E00E947E18082FBC
:103460008EE392E00E94900711E09D81981310E096
:10347000102331F10E9448096093950270939602DF
:10348000809397029093980289819A81AB81BC8145
:103490008093910290939202A0939302B09394022E
:1034A00011E00EC080913E0290913F02A091400237
:1034B000B091410289839A83AB83BC831111E4CF1D
:1034C0008091910290919202A0919302B091940206
:1034D000F70180839183A283B383812F0F900F9094
:1034E0000F900F900F90DF91CF911F910F91FF9050
:1034F000EF90089590E080E00E94D536893E9E4F7F
:1035000011F40C94F41680E0089528E030E043E0D4
:1035100060E086E30C942F32CF92DF92EF92FF921D
:103520000F931F93CF93DF93CDB7DEB72C970FB6D2
:10353000F894DEBF0FBECDBF4F83588769877A8767
:103540008B879C878091FB03882399F00E94851AC2
:1035500080E50E94A7328AEB8A95F1F700C00E94AD
:10356000BF32887899278038910509F492C00E946B
:10357000D7320E940A15882309F46BC00E944809BB
:103580000091DA011091DB012091DC013091DD0125
:103590006B017C01C01AD10AE20AF30A9701860185
:1035A000083011052105310508F453C06093DA0194
:1035B0007093DB018093DC019093DD01009109049D
:1035C00010910A0420910B0430910C04601B710BC4
:1035D000820B930B623371058105910580F4109283
:1035E000FF031092FE031092010410920004109247
:1035F0000304109202041092050410920404109126
:1036000008040E945915482FBE01695F7F4F8EEF55
:1036100093E0112309F46BC00E94D00D00910804BF
:103620001091FB030E94591541E04827BE01695FD4
:103630007F4F82E094E0011709F45CC00E94D00D36
:1036400086E0FE013796A7E1B4E001900D928A95DD
:10365000E1F786E0FE013796DE01119601900D92AA
:103660008A95E1F729813A814B815C816D817E8168
:1036700080E090E02C960FB6F894DEBF0FBECDBF71
:10368000DF91CF911F910F91FF90EF90DF90CF903E
:1036900008950E94BF320E94BF327C010E94BF3257
:1036A00020E0E22AF82A0E94BF328C010E94BF3239
:1036B00020E0022B182B0E94D732F894B70180919A
:1036C000FE039091FF030E94B60E9093FF03809338
:1036D000FE03B80180910004909101040E94B60E8F
:1036E00090930104809300040E943D0A42CF0E94FF
:1036F0005C0E94CF0E945C0EA3CFCF93DF93D82FA4
:10370000C62F0E94851A8D2F80680E94A7328C2FA9
:103710000E94A7320E94D7328FEC92E00197F1F716
:1037200000C00000DF91CF910895682F893708F01D
:1037300068E76093060491E0909307049091FB037F
:10374000992359F06150811101C064E08FE00E941B
:103750007D1B60E080E50C947D1B0895FB0180815A
:103760000C94951B90910604911101C095E0282FAF
:10377000880F330BA901490F511DCA0118161906EC
:1037800014F081E090E00C94951BCF93C82F0E9419
:10379000851A8C2F0E94A7328FE792E00197F1F7EC
:1037A00000C000000E94BF32C82F0E94D7329AE6A4
:1037B0009A95F1F700C08C2FCF910895CF93DF93A6
:1037C0000E942732269A0E94851A6AE58AE30E949F
:1037D0007D1B2FEF80E792E0215080409040E1F781
:1037E00000C0000082E00E94C51B83E00E94C51B50
:1037F00084E00E94C51B85E00E94C51B86E00E94F4
:10380000C51B60E080E10E947D1B80E00E94C51B1B
:10381000D82F81E00E94C51BC82F0E94D732D23416
:1038200019F481E0C13009F080E081708093FB03DE
:10383000882351F064E08FE00E947D1B60E080E50A
:10384000DF91CF910C947D1BDF91CF9108951F9252
:103850000F920FB60F9211242F933F934F935F93C4
:103860006F937F938F939F93AF93BF93CF93DF9388
:10387000EF93FF93D091E900DF708091EC00C82FA7
:10388000C17080FDC0E81092E9008091F000877F50
:103890008093F00078940E94D60E1092E9008091F7
:1038A000F00088608093F000CD2BCF70C093E900CA
:1038B000FF91EF91DF91CF91BF91AF919F918F9148
:1038C0007F916F915F914F913F912F910F900FBE1C
:1038D0000F901F9018951F920F920FB60F92112400
:1038E0002F933F934F935F936F937F938F939F9308
:1038F000AF93BF93EF93FF938091E10082FF09C0E4
:103900008091E20082FF05C08091E1008B7F80936F
:10391000E1008091DA0080FF24C08091D80080FF10
:1039200020C08091DA008E7F8093DA008091D900E8
:1039300080FF9DC080E189BD82E189BD09B400FEA0
:10394000FDCF81E08093F0038091E203811109C0F3
:103950000E94A7070E9472088091E2008460809311
:10396000E2008091E10080FF17C08091E20080FFBB
:1039700013C08091E2008E7F8093E2008091E2008C
:1039800080618093E2008091D80080628093D800AB
:1039900019BC85E08093F0038091E10084FF2BC087
:1039A0008091E20084FF27C080E189BD82E189BD6A
:1039B00089B5982F917080FFFBCF8091D8008F7DC3
:1039C0008093D8008091E1008F7E8093E100809108
:1039D000E2008F7E8093E2008091E200816080931C
:1039E000E2008091F103882309F447C084E08093CA
:1039F000F0038091F0038091E10083FF27C0809164
:103A0000E20083FF23C08091E100877F8093E10083
:103A100082E08093F0031092F1038091E1008E7FA9
:103A20008093E1008091E2008E7F8093E20080919C
:103A3000E20080618093E20042E060E080E00E946A
:103A400040088091F00088608093F000FF91EF9132
:103A5000BF91AF919F918F917F916F915F914F91A6
:103A60003F912F910F900FBE0F901F90189519BC8A
:103A70001092F0031092E20374CF8091E30087FD6F
:103A800093E09093F003B5CF78941F921FB61F92E6
:103A900011248F939F93AF93BF938091DE039091F6
:103AA000DF03A091E003B091E1030196A11DB11DD8
:103AB0008093DE039093DF03A093E003B093E103D0
:103AC000BF91AF919F918F911F901FBE1F9018952E
:103AD0009C014FB7F8948091DE039091DF03A09191
:103AE000E003B091E1034FBF821B930B08952FB702
:103AF000F8948091DE039091DF03A091E003B091F0
:103B0000E1032FBF08950E940A1581110C94771DBF
:103B10000E943E15CB0108956091D003669570E038
:103B200041E050E082E891E00E94A436892B19F42C
:103B300081E0809319030E94831D90931303809367
:103B4000120380911A03846080931A030895909160
:103B5000D00390FF3BC0917081112EC09260909372
:103B6000D00380911A03816080931A03662351F079
:103B70006091D0037091D1038091D2039091D303CF
:103B80000E940D176091D003669570E041E050E00F
:103B900082E891E00E94A436892BA9F00E94740962
:103BA00081E08093150320E04091D3036091D2031C
:103BB0008091D1030C941F17803110F09E61CFCFFC
:103BC000880F982BCCCF0E948C1DEACF089580914E
:103BD000D0038695815009F48FE061E00C94A71D15
:103BE0008091D00386958F5F803108F081E061E09D
:103BF0000C94A71D9091D00390FF07C0969598173D
:103C000020F0961710F40C94F01D61E00C94A71DA1
:103C10007F928F929F92AF92BF92CF92DF92EF925C
:103C2000FF920F931F93CF93DF93CDB7DEB72C97FF
:103C30000FB6F894DEBF0FBECDBF8E010F5F1F4FD2
:103C400088E0D8011D928A95E9F78DE8C82E81E0B9
:103C5000D82EF12CE12CAA24A394B12C2BE9822E8E
:103C600021E0922EF60181916F018F3F09F443C04C
:103C7000F894E82FE295EF70F0E021A18F70A50194
:103C800002C0440F551F8A95E2F7CA01922F982B64
:103C900091A392A18095892382A30E943D0A00C02E
:103CA000E5E9F1E0712C31E021912F3F09F47DC06D
:103CB000A22FA295AF70B0E090968C9190E02F70FB
:103CC00002C0959587952A95E2F780FD6EC0832FF7
:103CD000782A330F8E169F0639F7F60131978081C7
:103CE0008F3F11F00E94610A50EA5A95F1F7F801EE
:103CF000EE0DFF1D70828FEFE81AF80AA4E0EA16B5
:103D0000F10409F0AFCF48E050E0B80188EA92E052
:103D10000E94B1367C01892B41F088E0F801A8EAC5
:103D2000B2E001900D928A95E1F71091B102E11491
:103D3000F104E9F181E0809334020E94771D9093B1
:103D400033028093320280913202909133020E94BA
:103D5000681D059790F0E12FF0E0EC51FD4F809148
:103D6000A80280838091A90281838091AA02828324
:103D70008091AB0283831092340281E090E0EF28BF
:103D8000D1F02C960FB6F894DEBF0FBECDBFDF91F9
:103D9000CF911F910F91FF90EF90DF90CF90BF9048
:103DA000AF909F908F907F90089580E091CF809109
:103DB00034028111C8CF0E940A15F82EE091B10299
:103DC000882309F476C019861A861B861C860E2F56
:103DD00010E00C511D4F8091A1028A30A0F544EEF5
:103DE00059E1BE01675F7F4FC8010E94C614882356
:103DF000C9F142E959E1BE01675F7F4FC8010E94E6
:103E0000C614882379F14FE259E1BE01675F7F4F05
:103E1000C8010E94C614882329F11092A102809142
:103E2000B00290E044E050E0BE01675F7F4F8C51EC
:103E30009D4F0E94B13621E020933B02892B59F51A
:103E4000F12C8F2D9ECF80913502909136020E94E9
:103E5000681D843F914018F680913B02811112C089
:103E600080E08FCF8091A1028F3F29F08F5F8093F8
:103E7000A1028A30A0F20E94771D909336028093AF
:103E80003502EACFFE01399684E0DF011D928A9562
:103E9000E9F710923B02E091B002F0E0EC51FD4FE7
:103EA00089859A85AB85BC8580839183A283B38302
:103EB000C8CFF0E0EC51FD4FF89484E0AEE3B2E0FF
:103EC00001900D928A95E1F78EE392E00E949007AF
:103ED00080933D020E943D0AF894C0904202D09027
:103EE0004302E0904402F0904502809137029091A5
:103EF0003802A0913902B0913A02C816D906EA06F2
:103F0000FB06D1F0C0923702D0923802E09239021B
:103F1000F0923A020E940A1581110EC00E944809CF
:103F2000C61AD70AE80AF90AC092A202D092A302DE
:103F3000E092A402F092A5020E943D0AF8948091BA
:103F40004D02882379F180FF0DC08091460280FFE9
:103F50002CC09091D00391609093D00360E086953F
:103F60000E94A71D80914D0281FF09C020E0409171
:103F7000490260914802809147020E941F17809178
:103F80004D0282FF06C080914C02882389F00E9476
:103F90008C1D80914D0283FF03C081E08093150347
:103FA00010924D020E943D0A5BCF0E94AF14DACFFF
:103FB0000E947409EECF86E00E94F70C0E94771DE4
:103FC00090930A038093090382E080930B03089582
:103FD000EF92FF920F931F93CF93DF93CDB7DEB78E
:103FE00068970FB6F894DEBF0FBECDBF40910C03AB
:103FF00050910D0360910E0370910F038091100397
:10400000909111030E948C1A20930C0330930D039E
:1040100040930E0350930F036093100370931103AA
:1040200086E0ECE0F3E0DE01539601900D928A9574
:10403000E1F786E0FE017396DE01179601900D927E
:104040008A95E1F70D89EE889E2D902B80910B03C8
:10405000992309F4FEC0002E000C110B0E2C000C4D
:10406000FF088230F1F188F4813009F4C9C00E9460
:10407000771D90930A038093090381E080930B03DB
:10408000109202031092010332C0833099F1843000
:1040900071F7C701F7FE04C0882799278E199F0979
:1040A000880F991F980117FF04C022273327201B70
:1040B000310B281739070CF042C08091050390910D
:1040C0000603E80EF91E30E0F7FEF1C05EECE516DF
:1040D0005FEFF5067CF1F0920603E092050380E0C5
:1040E00041C00E94771D90930A038093090360E00A
:1040F00020E04CC0C701F7FE04C0882799278E191D
:104100009F09980117FF04C022273327201B310B7A
:10411000280F391F8091070390910803821B930B8E
:1041200090930803809307031816190604F760E0BC
:1041300020E02AC022E3E20EF11C3E5CC5CF809154
:10414000030390910403080F191F80E017FFB9C003
:104150000E3C9FEF19070CF44FC01093040300931B
:10416000030330E0082E000C990BE2E3F0E0BF01FE
:104170000E945836262F432F552741950CF4509511
:10418000CA01BF010E945836E12C00E00987EA8687
:104190006B872C8786E0FE013796DE011196019031
:1041A0000D928A95E1F786E0FE013196DE011D96BB
:1041B00001900D928A95E1F786E0FE013D96DE01C1
:1041C000179601900D928A95E1F786E0FE013796E9
:1041D000ACE0B3E001900D928A95E1F768960FB6D6
:1041E000F894DEBF0FBECDBFDF91CF911F910F912D
:1041F000FF90EF900C9462120E5C1F4F8E5CA6CF66
:10420000C701F7FE04C0882799278E199F099801D6
:1042100017FF04C022273327201B310B820F931F67
:104220002091010330910203820F931F90930203A8
:10423000809301032091FD023091FE0282179307C3
:104240000CF455CF10920203109201030E94DB1F61
:104250004ECF823051F028F48130F9F010920B03E8
:1042600066CF853008F463CFF9CF80910903909130
:104270000A030E94681D893E934008F458CF1092AB
:104280000B0386E00E94CF0C1092060310920503E8
:1042900010920403109203034ACF80910903909176
:1042A0000A030E94681DC39708F441CFD7CF83E368
:1042B000E816F1040CF40FCF42E3E41AF10832538C
:1042C00003CF033311050CF448CF02531109825375
:1042D0003DCF3F924F925F926F927F928F929F92CB
:1042E000AF92BF92CF92DF92EF92FF920F931F9304
:1042F000CF93DF93CDB7DEB762970FB6F894DEBFEA
:104300000FBECDBF8C01FC0183819481892B31F0DC
:104310008081918189238F3F09F00EC662960FB686
:10432000F894DEBF0FBECDBFDF91CF911F910F91EB
:10433000FF90EF90DF90CF90BF90AF909F908F90C5
:104340007F906F905F904F903F9008950E949216DB
:10435000F82E682F89819A810E948E0C69817A815A
:104360008F2D0E9485167C01F8018281882309F433
:10437000D5C5C70182519F45409708F07BC58FEF97
:1043800093E00E94C736FEEEEF0E57EC852E52E00A
:10439000952E8823A9F180912D02877009F4BECF54
:1043A000F8018281882309F4B9CF8091A70282FDA8
:1043B000B5CF82E062960FB6F894DEBF0FBECDBFD8
:1043C000DF91CF911F910F91FF90EF90DF90CF90F1
:1043D000BF90AF909F908F907F906F905F904F9025
:1043E0003F900C94DB0C811424E09206A1F2C401EE
:1043F0000E94C736811101C0EA943FEF831A930AE5
:10440000E110F1CF1C821B82442443944AE0342EF5
:1044100074018FEFE81AF80AC4010E94C736898335
:104420001A82882309F4B7CF9FEF980F933030F5A5
:104430008A83498292E0890E911CC7010E94C73687
:104440008B83882309F4A7CFFE0131967F01F70102
:1044500020812223E9F2213009F04FC0918182812D
:10446000913071F4F2E0EF0EF11C65E070E08933F9
:1044700011F460E570E00E949D1509C04701E4CF8A
:10448000923049F422E0E20EF11C0E94710D8FEF90
:10449000E81AF80ADCCF933031F432E0E30EF11C75
:1044A0000E941B0DF4CF943021F08FEFE81AF80A28
:1044B000EECF92E0E90EF11C30E020E0B7016F5F33
:1044C0007F4FF70141818053990B8A30910550F05D
:1044D00021503109E0F28FE99FE00197F1F700C028
:1044E0000000F6CF329EF001339EF00D11249C01A6
:1044F0002E0F3F1F842F7B01E1CFE22FF0E0E95721
:10450000FE4F5490822F86958695869590E0FC010B
:10451000E958FE4F64902770712C022E02C07594EA
:1045200067940A94E2F7E1E06E227724FC01E959EE
:10453000FE4FA490B12C022E02C0B594A7940A9409
:10454000E2F7F1E0AF22BB24FC01E95AFE4FC49030
:10455000D12C02C0D594C7942A95E2F721E0C2225B
:10456000DD246114710419F081EE0E94710DA11413
:10457000B10419F086EE0E94710D39E365E070E038
:10458000531202C060E570E0852D0E949D15AB2896
:1045900019F086EE0E941B0D672819F081EE0E942B
:1045A0001B0DCD2809F473CF65E070E08CE263CF7A
:1045B00081E00E94F70C0E94C40CEDCE81E00E94C5
:1045C000CF0CF9CF82E0F5CFF8018281F3EBEF1643
:1045D000FDE5FF0609F468C024EBE2162DE5F206BE
:1045E00009F06DC4882309F4D6CE8091FD02909124
:1045F000FE020597853091050CF05EC085E090E0E5
:104600005BC086E0ECE0F3E0DE011D9601900D92C8
:104610008A95E1F786E0FE013D96DE01179601904E
:104620000D928A95E1F72E853FEAE31A3DE5F30AFC
:1046300081E090E001C0880FEA94EAF7F801328146
:10464000332309F1F22EF82A83E080930B038EE1E5
:1046500090E09093080380930703F88686E0FE01BC
:104660003796DE01119601900D928A95E1F786E06A
:10467000FE013196ACE0B3E001900D928A95E1F72E
:104680000E94621288CE8095F82EF2220E94DB1FD3
:10469000E4CFF8018281882321F084E080930B032A
:1046A0007ACE0E94DB1F77CE882309F474CE8091E6
:1046B000FD029091FE0205969093FE028093FD020A
:1046C0004091FD025091FE026091FF027091000343
:1046D00083E190E00E94ED365ECE94EFE91AF10896
:1046E00021E030E001C0220FEA94EAF796E0ECE026
:1046F000F3E0DE01179601900D929A95E1F796E0AE
:10470000FE013796DE011D9601900D929A95E1F714
:1047100098858823A9F0292B2E8786E0FE013D96F7
:10472000DE01119601900D928A95E1F786E0FE0177
:104730003196ACE0B3E001900D928A95E1F72BCE73
:1047400020952923E9CF80E00E94951B10920D044B
:1047500022CE4091060450910D0450FB47F9569526
:10476000537060E070E08FE090E0B4CF81E00E9491
:10477000B21B11CE8FEFFBCF8AE0F9CF86EFF7CFD8
:104780009091080481E089270E94BC0D04CE80919D
:104790000D04811101C084E08F5F18160CF081E0D8
:1047A000883008F087E080930D04F5CD80910D04EA
:1047B000811101C084E08150F0CFE6E1EE16ECE516
:1047C000FE0609F036C18091E3038A7A91E009F48C
:1047D00090E09093DE0169E2811165E38CEC91E059
:1047E0000E9454090E942E0CD6CD85E3C1C380914E
:1047F000E3038272FBECEF16FCE5FF0609F401C14E
:1048000008F089C036ECE3163CE5F30609F4E5C090
:1048100008F069C0E3ECEE16ECE5FE0609F4D3C03F
:1048200008F04EC022ECE2162CE5F20609F49FC017
:10483000F8018281E080F180882309F435C1C70145
:104840000E949216D82E682FC7010E948E0CB701C5
:104850008D2D0E9485160E94BB0A7C01882EF801CE
:10486000C280B580B2943FE0B32280912D02877060
:10487000C1F0AC2CCC20B1F08F2D807F803421F0A2
:1048800080E28E0D883068F08091A70282FD09C019
:1048900082E00E94DB0C80912D028770AA24A394F1
:1048A0008111A12C9F2C92942FE09222FBE0F9150C
:1048B00008F46AC1E92DF0E0E75DF84C0C948E36FF
:1048C00034ECE3163CE5F30609F482C045EB57E10E
:1048D0006EEB77E195ECE9169CE5F90609F0A8CFB7
:1048E0000E946E0958CDE8ECEE16ECE5FE0609F4E0
:1048F0007EC008F477C029ECE2162CE5F20609F434
:104900007BC041E957E165E877E13AECE3163CE525
:10491000F30631F38DCF90EDE9169CE5F90609F425
:1049200082C0B8F4FDECEF16FCE5FF0609F473C095
:1049300008F46CC03EECE3163CE5F30609F46EC0E7
:104940008FECE8168CE5F80609F072CF68E086E097
:1049500067C095EDE9169CE5F90609F467C008F40F
:104960001ACDFDE5EF16FF0609F415CD61CF809154
:10497000D00380FF20C08E7F8093D0036091D0034E
:104980007091D1038091D2039091D3030E940D17AF
:104990000E94740980911A03816080931A032FEF9B
:1049A00030E782E0215030408040E1F700C0000055
:1049B0000E948B13F0CC81608093D00361E08695D8
:1049C0000E94A71DE8CC47EE5DE160EF7DE188CF56
:1049D00040EF5DE167EE7DE183CF4EEB57E165EBA4
:1049E00077E17ECF4DE957E169EA77E179CF49EA8E
:1049F00057E16DE977E174CF45E857E161E977E187
:104A00006FCF47EC57E168ED77E16ACF48ED57E1AA
:104A100067EC77E165CF61E081E0D2CF65E082E0CD
:104A20000E94FA1DB8CC6EE089E0FACF61E08FE019
:104A3000C7CF9AE5E9169DE5F90691F168F4E1140E
:104A4000FCE5FF06F1F02EEDE2162CE5F20609F08A
:104A5000EFCE0E9401189FCC3BE5E3163DE5F3063F
:104A600009F18CE5E8168DE5F80609F0E1CE8091B4
:104A7000A70282FB882780F991E089270E944216CD
:104A8000D7CE1092E3030E94C90E9FEFE4E3FCE04F
:104A90009150E040F040E1F700C000000E9437096B
:104AA00081E0ECCF80E0EACFC7010E94650CD82EF0
:104AB000CECE2F2D2F70D22E8F2D807F19F0D29435
:104AC00090EFD922CC20B9F0DD2069F080E28E0D84
:104AD000883010F0811009C08091E303D82AD09269
:104AE000E3030E942E0C8E2D4DC080912F02D82AF8
:104AF000D0922F02F6CF8E2D0E941B0DDD2009F4DF
:104B000043C080E28E0D883010F0811004C08D2DDE
:104B10000E94270C06C0D09480912F02D822D092F8
:104B20002F020E942E0C30C03F2D3F70D32E8F2DB0
:104B3000807F803219F0D29480EFD822882089F0CB
:104B400081E0881609F480C0CC2009F48AC0BB201B
:104B500009F480C0F801858180FFC5CF8F708583FF
:104B600079C02091A70222FF4CC0CC2009F443C099
:104B7000DD2039F08091E303D82AD092E3030E942C
:104B80002E0C80E00E94710D292D2850330B24300B
:104B9000310510F40E942E15AA2009F4BFCB809194
:104BA0002D0280FDBBCBF8011282859585958595F8
:104BB0000E94F70CC8010E94692180912D02859501
:104BC0008595859562960FB6F894DEBF0FBECDBF72
:104BD000DF91CF911F910F91FF90EF90DF90CF90D9
:104BE000BF90AF909F908F907F906F905F904F900D
:104BF0003F900C94CF0C80E00E941B0DDD2021F231
:104C000086CFCC20A1F0909130028D2D892BB11050
:104C100003C00E94110DB8CFE1E0BE12FACF22FD11
:104C2000B3CF981709F4B0CF80933002ADCFB11055
:104C300006C00E94210C8D2D0E940A0DA5CFF1E027
:104C4000BF1609F4A1CFF5CFCC2031F025E02B150C
:104C500008F49ACF8D2DDDCF34E03B1508F494CFC6
:104C6000EACFBB2041F3F9E38F12FCC02FEF37EE00
:104C700083E0215030408040E1F700C000008E2DDD
:104C80000E941B0D81CF8F2D837091F5C1107CCFB9
:104C90004E2D429546954770440F440F8E2D8F70D0
:104CA000042E01C0880F0A94EAF72E2D2071E4FE2D
:104CB00007C02FE030E001C0220F4A95EAF72095A7
:104CC0003F2D369536953370323069F050F440916F
:104CD0003102313029F0822B84230E94020D54CFFF
:104CE000842B822BFACF282B809131028227F5CF9B
:104CF0008695CC2011F08F2D8170882309F444CF44
:104D00004E2D429546954770440F440F8E2D8F705F
:104D1000042E01C0880F0A94EAF72E2D2071E4FEBC
:104D200007C02FE030E001C0220F4A95EAF7209536
:104D30003F2D369536953370323069F050F44091FE
:104D4000FA03313029F0822B84230E94BC0C1CCF43
:104D5000842B822BFACF282B8091FA038227F5CF60
:104D6000FF2DFF70FF2ECC2029F08F2F0E94F70C13
:104D70008E2D4FCF8E2D0E940A0D8F2D0E94CF0CAD
:104D800003CF8E2D22EF8216B1F1281570F030EF8F
:104D90008316D1F091EF891691F0CC2009F45DC013
:104DA000B110A1CE8F2D8F712AC0E3EF8E1651F175
:104DB000F4EF8F12F2CF8091A70282FF2FC08F2DC8
:104DC0008F71CC20D9F21BC0CC2081F024E02B15B0
:104DD00008F4DACE2F2D2F7181E090E001C0880F0A
:104DE0002A95EAF79091FA038927AFCF35E03B1572
:104DF00008F4CACEEFCF8F2D8F71C110BFCF0E94A4
:104E0000F70CC2CE80E0CC2009F49FCF9F2D9F717C
:104E100081E001C0880F9A95EAF797CFCC2091F0F6
:104E20008F2D8F71F82E0E94F70C8091A70282FDC2
:104E300007C0E8E0FE9EC0011124836080932D022C
:104E40008F2DDDCF81E00E94DB0CF1E0FB1508F037
:104E50009BCE82E00E94DB0C97CEBB2041F08933D1
:104E600009F404CFEFE1FEE43197F1F706CF8F2D7F
:104E70008F7184CFF0E1EF16FFE5FF0609F498CBC0
:104E800021E1E2162FE5F20609F49CCBF09214041E
:104E9000E0921304F801808191819093160480932D
:104EA0001504F2EBEF16FDE5FF0609F4F2CB08F06E
:104EB0008BCB3FEAE3163DE5F30608F0A2CBF80101
:104EC0008281882369F010920B0386E00E94CF0C48
:104ED000109206031092050310920403109203032C
:104EE000F8018281F4EFEF16F10458F029EFE21691
:104EF000F10408F4F2CB3CEAE3163DE5F30609F4CD
:104F000043CC882351F1F701E55AFD45EA30F1051C
:104F100008F053CCEB5CF84C0C948E3630E1E31681
:104F20003FE5F30609F44ACB81E1E8168FE5F80680
:104F300009F0ACCF82E043CB85E0DE011196019011
:104F40000D928A95E1F7F801228189819A812111D8
:104F5000FDC90E94650CF82E01CAF6E1EF16FCE5CA
:104F6000FF0609F044CC8091DE0181113ECC89E23C
:104F7000EEECF1E024ED31E09191891303C0DF0103
:104F800011971C922E173F07B9F72CCC1F93CF9384
:104F9000DF938091FA01807FA9F48091F701882343
:104FA00089F080912C02D091FB016091F501709104
:104FB000F601A091F801B091F901C62FC72316E0C0
:104FC000D81304C0DF91CF911F91089590E01097FE
:104FD00011F0CF3F19F401968770F2CF189F90011E
:104FE000199F300D1124F901E450FE4F4181471300
:104FF000F2CF40814613EFCF42814111ECCF438184
:1050000054814A1B5B0B483C510528F78091FA01FB
:105010008F7080618093FA01F901EF5FFD4F80810D
:105020008F708061808385EF91E00E946921DF911C
:10503000CF911F910C945B0CAF92BF92CF92DF92F5
:10504000EF92FF920F931F93CF93DF93CDB7DEB70D
:1050500061970FB6F894DEBF0FBECDBF8C0185E01F
:10506000F801DE011D9601900D928A95E1F7F80195
:10507000E28085EFA82E81E0B82E6091F801709152
:10508000F9016115710509F432C19091F501409162
:10509000F601892F84238F3F09F429C120813181B2
:1050A000C380D480F090F701F601E61BF70BFF20D8
:1050B00009F4E8C08091FA01582F507FE83CF105CF
:1050C00008F0ABC0511177C0FE2C431321C09213DE
:1050D0001FC0E1101DC08F7080618093FA01C5016F
:1050E0000E9469218091FA01F80185838F2D6196D4
:1050F0000FB6F894DEBF0FBECDBFDF91CF911F91E9
:105100000F91FF90EF90DF90CF90BF90AF900895F8
:10511000CD2829F0822F83238F3F09F003C180E03F
:10512000F82FF170DF2E80FF3CC080912C0240915F
:10513000FB0156E0841315C02D873E878D859E8523
:105140000E94C116292F22952F702230F0F02430B2
:1051500018F59F70F1F0F8019581907FD1F4D12C72
:105160001EC090E0589FF001599FF00D1124E450AB
:10517000FE4F6181361306C06081261303C0628131
:10518000E6120FC001968770D5CF9F7011F088236B
:1051900031F3805E883018F3C8010E946921FD2C2C
:1051A000A5CFEE2009F4A2CF8091FA01816080930F
:1051B000FA01F12C9BCF431306C0921304C0F801EF
:1051C000EE2009F479C0C8010E94CD16882309F1A8
:1051D000EE20F9F08091FA01803270F02091F50113
:1051E0003091F60138872F831986DB86CA868C8733
:1051F000CE0107960E94692186E0F801A5EFB1E093
:1052000001900D928A95E1F70E94C627FF24F3943E
:105210006DCFC8010E946921F9CF51110AC085EFF5
:1052200091E00E94692186E0F50111928A95E9F7E3
:10523000C0CF43130FC092130DC0E1100BC0F80193
:105240008583C8010E94692186E0F50111928A9543
:10525000E9F74CCFC8010E94CD168823D1F2EE2089
:10526000C1F28091FA01803238F22091F50130913B
:10527000F6013A8329831B82DD82CC828E83CE01A4
:105280000196B8CFE83CF105F8F6FE2CEE2009F2C5
:1052900043131FC092131DC08091FA0180FD10C0FE
:1052A000982F907F69F0F8018583903F31F0982F17
:1052B000907F905F8F70892B8583C8010E94692140
:1052C00086E0F801A5EFB1E001900D928A95E1F733
:1052D0000DCFC8010E94CD1681118ECF8091FA01A9
:1052E00081608093FA01C8010E946921FFCEEE20FF
:1052F00009F48FCFC8010E94CD16F82E882309F437
:1053000088CF86E0F801A5EFB1E001900D928A9573
:10531000E1F78091F5019091F6010E94C1160E947B
:10532000C627E4CE81E08E25FBCE1F93CF93DF937B
:10533000CDB7DEB767970FB6F894DEBF0FBECDBF0F
:105340004B8B5C8B6D8B7E8B8F8B611110922F0240
:105350001A8A198A85E0FE017396DE011D96019076
:105360000D928A95E1F786E0FE013D96DE011796E3
:1053700001900D928A95E1F7CE0107960E941C28B4
:10538000882389F016E080912C029091FB0189130B
:105390004BC067960FB6F894DEBF0FBECDBFDF914E
:1053A000CF911F91089586E0FE013796DE01119698
:1053B00001900D928A95E1F78A859B85892B11F3DF
:1053C0008F81988589238F3FE9F22091FB0130E09E
:1053D000C90101968770992740912C024817190638
:1053E00081F41092E3030E94C90E1092FB01109207
:1053F0002C0286E0E5EFF1E0DF011D928A95E9F7E6
:10540000C1CF96E0929FD001939FB00D1124A4507C
:10541000BE4FFE01319601900D929A95E1F780936F
:10542000FB010E945B0CAECF819FC0011124845010
:105430009E4F0E941C28882309F4ABCF80912C0238
:1054400090E001968770992780932C029CCF1F9241
:105450001FB61F9211248F939F93AF93BF93809198
:10546000DD03811113C08091DE039091DF03A091D1
:10547000E003B091E1034196A11DB11D8093DE03CD
:105480009093DF03A093E003B093E103BF91AF914A
:105490009F918F911F901FBE1F901895CDB7DEB7BB
:1054A000AE970FB6F894DEBF0FBECDBF84B7877F2F
:1054B00084BF0FB6F894A8958091600088618093AE
:1054C0006000109260000FBE80E890E00FB6F89484
:1054D00080936100909361000FBE85B7806885BF9F
:1054E00085B7806885BF8BE39AE09093CB0180936A
:1054F000CA010E94A7070E9472088091E20084609E
:105500008093E20078948091F0038823A1F01091B9
:10551000E9001F709091EC00892F817090FD80E868
:10552000182B1092E9008091E80083FD0E94D60EAE
:105530001F701093E90082E084BD93E095BD9AEF5F
:1055400097BD80936E001092A2021092A302109257
:10555000A4021092A5020E94F416811102C00E94BA
:1055600033160E9459158093000180910001882311
:1055700009F472C0109284018EE1809385010E942B
:105580000A1581110E946934809100018091000107
:1055900094E0811190E09093B10284E0891B8093A4
:1055A000B00284EF0E94610A85EF0E94610A86EFD3
:1055B0000E94610A87EF0E94610A05E911E04BE948
:1055C000E42E41E0F42ED8018D918D018F3F11F032
:1055D0000E94610AE016F106B1F788E0E4EEF2E01D
:1055E000DF01C82E1D92CA94E9F7E8EAF2E0DF0174
:1055F0001D928A95E9F70E947A1A811102C00E94D1
:10560000011882E090E00E94C7368093DB0284E0BC
:1056100090E00E94C736182F82E290E00E94C736C1
:10562000982F812F9093A7028093A6020E94081EB4
:10563000EFE3FCE93197F1F700C000000E94081E7B
:105640008091E40280FF0CC06FEF7FEF90E080E07C
:105650000E94F9360E9437098EE1809384018DCF34
:1056600083E090E00E94C7360E94020D0E940A1556
:10567000811102C00E946C340E940A15882309F42B
:10568000C3C280E08093D60280E8809322040E9407
:1056900001336DE070E08AE192E00E94CA12892B2A
:1056A000E9F58091D60263E070E081FDAFC287E149
:1056B00092E00E94CA12892B89F56DE070E087E0C4
:1056C00092E00E94CA12892B49F50E944809605A4B
:1056D00075418F4F9F4F6093D5037093D60380938E
:1056E000D7039093D803E5E2F4E080E092E0DF0195
:1056F0009C011D9221503040E1F7F0932C06E0937D
:105700002B068FEF9FEF909324048093230481E076
:105710008093DA038093D9031092D7028091B2026A
:10572000811138C00E947A1A811104C00E940118A8
:105730000E94E91788E090E00E94CF366093D00382
:105740007093D1038093D2039093D30380911A0373
:10575000836080931A036E7F71F40E94E91788E0DA
:1057600090E00E94CF366093D0037093D103809372
:10577000D2039093D3030E947B090E947409809105
:10578000D00380FF04C060E086950E94A71D81E0E1
:105790008093B2020E94DE1B0E940A1581112EC066
:1057A00087E995E190935A018093590124E130E013
:1057B000309355012093540184E390E09093580175
:1057C0008093570147E25AE050936401409363018C
:1057D00030935F0120935E01909362018093610199
:1057E0004EEA5BE150936E0140936D013093690185
:1057F0002093680190936C0180936B010E947A1A48
:10580000882389F08FE090E00E94CF368B01862FAD
:105810008F770E94951B001F0027001F1370110F28
:10582000102B10930D040E94711583E190E00E94EB
:10583000CF366093FD027093FE028093FF02909337
:1058400000038FE691E09093DC038093DB0380916B
:10585000F003853059F48091F003853009F4D9C103
:105860001092E3030E94C90E0E942E150E94081E8A
:10587000B82E81110E94480934EEC32E32E0D32E97
:10588000A3EAB1E0BCA7ABA74CED52E0960110E053
:1058900000E0902EF901F1909F018D91F822FA011C
:1058A0008191AF018F1509F4FAC18F25A12CEE2447
:1058B000E394982F9E2109F4EDC10E940A158823D4
:1058C00099F0A9A29AA2FE2081E009F480E08BA3BE
:1058D0000E94771D8160782F9DA38CA349A15AA1B6
:1058E0006BA18DA10E949529F801E452FD4F8081A2
:1058F000E826E08280911903882309F464C080912E
:105900001803E091D003E695E81BE093140382307E
:1059100009F0DCC1F0E0E15DFD4FE4910E2F10E0F5
:105920002BE9E22E24E1F22E80911503882361F009
:10593000109215030E94831D90931303809312030A
:1059400010921703109216030E94831DE091120318
:10595000F09113039C012E1B3F0B2F3F3F4798F5FF
:105960002091B5022223B1F01092B5022091B3022A
:105970003091B402821B930B8F3F9F4758F4205DF8
:105980003A483093B4022093B30280911A0388609E
:1059900080931A0380901603909017030E0F1F1F19
:1059A000109313030093120382E193E0F70109952A
:1059B0008091160390911703892B29F4892819F0F7
:1059C00081E08093B5028091DA03882351F18091C0
:1059D000D8029091D9020E94681DC29708F0A3C115
:1059E00020912304309124042115310509F06DC262
:1059F0008091D9038823A9F00E9448090091D5031A
:105A00001091D6032091D7033091D803601B710BFE
:105A1000820B930B6F3F7F4F8F4F9F4710F40E9475
:105A2000FA12B1100E9415130E94E81F0E942E1551
:105A30009091DA02891721F00E942E158093DA02E4
:105A40008091F003843009F412C30E940A15882360
:105A500009F4FDCE0E9448092091F20221116FC085
:105A60000091EE021091EF022091F0023091F102CC
:105A70006B017C01C01AD10AE20AF30A9701860180
:105A8000043F11402105310508F459C06093EE022E
:105A90007093EF028093F0029093F1028091EC02F8
:105AA0009091ED0201969093ED028093EC021982A1
:105AB0008E010F5F1F4F21E050E040E060E088E082
:105AC0000E94CF18811106C08091EC029091ED02E6
:105AD0000A97ACF181E08093F2028093FC039981F4
